:100000000C942A000C943F000C943F000C943F0089
:100010000C943F000C943F000C943F000C943F0064
:100020000C943F000C943F000C943F000C943F0054
:100030000C943F000C943F000C943F000C943F0044
:100040000C943F000C943F000C943F000C943F0034
:100050000C943F0011241FBECFE5D4E0DEBFCDBF1E
:1000600010E0A0E6B0E0E8EDF2E002C005900D92ED
:10007000AC37B107D9F70E94CF000C946A010C94F9
:10008000000084E085BB82EE94E00197F1F715BA99
:10009000089585E085BB82EE94E00197F1F781E059
:1000A00085BB0895FF920F931F93CF93DF93182F73
:1000B000492F9C01E1E0F0E010C0CF01880F991FAB
:1000C00053E0EE0FFF1F5A95E1F7E80FF91FC90142
:1000D0006AE070E00E9443019B012A3031056CF711
:1000E00085E0F82EC2EED4E001E0812F942FBF010D
:1000F0000E944301605D62BBF5BACE010197F1F742
:1001000005BB812F942FBF010E944301182F492F57
:10011000CF016AE070E00E944301FB0161157105A7
:1001200021F7DF91CF911F910F91FF900895DF93F9
:10013000CF93CDB7DEB72A970FB6F894DEBF0FBEC8
:10014000CDBFDE011196E1E7F0E08AE001900D926B
:100150008150E1F7FE013196DF010D900020E9F7B3
:100160001197AE1BBF0BAA0FBB1FAE0FBF1F44E002
:1001700022EE34E008C0808182BB45BBC9010197F3
:10018000F1F715BA3296EA17FB07A9F72A960FB6C8
:10019000F894DEBF0FBECDBFCF91DF910895BF921F
:1001A000CF92DF92EF92FF920F931F93DF93CF9343
:1001B000CDB7DEB761970FB6F894DEBF0FBECDBFE7
:1001C0009FEF91BB81B384BB97BB9BBB0E94970001
:1001D000DE011196E0E6F0E081E101900D928150A0
:1001E000E1F7FE013196DF010D900020E9F7AD0146
:1001F00000E010E020E030E07F0141505040B5E0E9
:10020000BB2EE2EEF4E0CC24C394AAEADA2E69E134
:1002100070E0D70107C08D9182BBB5BACF010197BD
:10022000F1F7C5BAA417B507B1F7C8991BC0C999AA
:10023000FECFC9990BC02F5F3F4F28BB88E893E1E1
:10024000DB011197F1F70197D9F789010330110507
:1002500001F7D8BA88EB9BE0DB011197F1F7019722
:10026000D9F7D7CFC999D5CFC899FECFC899D1CFE3
:100270002150304028BB88E893E1DB011197F1F76A
:100280000197D9F7C6CF97FB092E07260AD077FD2D
:1002900004D00CD006D000201AF4709561957F4FE1
:1002A0000895F6F7909581959F4F0895AA1BBB1B63
:1002B00051E107C0AA1FBB1FA617B70710F0A61B66
:1002C000B70B881F991F5A95A9F780959095BC0187
:0802D000CD010895F894FFCF61
:1002D800546F74616C206E756D626572206973204D
:0C02E800000100060038000E008000003D
:00000001FF
